S019000050726F6A656B742D414D2D536F757263652E73726563D3
S11300000C9434000C9446000C9448000C94460064
S11300100C9446000C9446000C9446000C94460044
S11300200C9446000C9446000C9446000C94460034
S11300300C9446000C9446000C9446000C94460024
S11300400C9446000C9446000C9446000C94460014
S11300500C9446000C9446000C9446000C94460004
S11300600C9446000C94460011241FBECFEFD8E038
S1130070DEBFCDBF21E0A0E0B1E001C01D92A430FD
S1130080B207E1F70E949B000C94AE000C940000B0
S11300901F920F920FB60F9211248F939F93AF93D9
S11300A0BF9399B193FB992790F989B1881F882749
S11300B0881F9817C1F09BB180E189278BB9809183
S11300C0000190910101A0910201B09103010A96EF
S11300D0A11DB11D8093000190930101A093020121
S11300E0B09303011FC09BB180E289278BB9809133
S11300F0000190910101A0910201B091030180914E
S1130100000190910101A0910201B09103010A97AD
S1130110A109B1098093000190930101A093020108
S1130120B0930301BF91AF919F918F910F900FBE38
S11301300F901F9018958AB180638AB98AB1877726
S11301408AB98BB188688BB98DB382608DBBE9E6BF
S1130150F0E08081846080837894FFCFF894FFCFAF
S9030000FC
